:020000040800F2
:1000000070070020410200085D1E0008551E000810
:10001000591E000865060008CD23000800000000F6
:10002000000000000000000000000000651E000845
:100030007506000800000000611E0008691E000827
:100040005B0200085B0200085B0200085B0200081C
:100050005B0200085B0200085B0200085B0200080C
:100060005B0200085B0200085B0200085B020008FC
:100070005B0200085B0200085B0200085B020008EC
:100080005B020008690600085B020008000000002F
:100090000000000000000000000000005B020008FB
:1000A0005B0200085B020008811E00085B0200087A
:1000B0005B0200085B0200085B0200085B020008AC
:1000C0005B0200085B0200085B0200085B0200089C
:1000D0005B0200085B020008C1230008000000006A
:1000E0005B0200085B0200085B02000800000000E1
:1000F0000000000000000000000000005B0200089B
:10010000000000005B0200085B0200085B020008C0
:1001100000000000000000000000000000000000DF
:100120005B0200085B0200085B0200085B0200083B
:100130005B0200080000000000000000000000005A
:100140000000000000000000000000005B0200084A
:100150005B0200085B0200085B0200085B0200080B
:100160005B0200085B0200080000000000000000C5
:10017000000000000000000000000000000000007F
:10018000000000005B02000800000000000000000A
:100190005B0200085B02000800F002F800F040F883
:1001A0000AA090E8000C82448344AAF10107DA45D2
:1001B00001D100F035F8AFF2090EBAE80F0013F0E4
:1001C000010F18BFFB1A43F0010318473C2A000037
:1001D0005C2A0000103A24BF78C878C1FAD85207C8
:1001E00024BF30C830C144BF04680C6070470000B1
:1001F0000023002400250026103A28BF78C1FBD830
:10020000520728BF30C148BF0B6070471FB502F0CE
:10021000C8FB9DE8030000F047F91FBD10B510BDF5
:1002200000F09EF91146FFF7F1FF02F0D1F800F05F
:10023000BCF903B4FFF7F2FF03BC00F0EDF90000D6
:100240000948804709480047FEE7FEE7FEE7FEE76A
:10025000FEE7FEE7FEE7FEE7FEE7FEE704480549A6
:10026000054A064B704700006D1E00089901000802
:100270007001002070070020700300207003002030
:1002800070B5064600F0F4F8056806F10B0020F0A2
:100290000704B4429CBF002070BD2B466A68BAB107
:1002A0001068A04210D304F1080188423CBF506896
:1002B000586007D35168101941601168091B01602B
:1002C00058601460101D70BD13465268002AE7D1B3
:1002D0002146284600F0D4F80028DED170BD70B564
:1002E0000446051F00F0C4F80068002C14BF4468E1
:1002F00070BD002C18BFAC423CBF20466468F8D3E8
:1003000001680A18AA4218BF456003D12A68054649
:100310001144016028684119A1421CBF6C6070BD86
:100320006168696021680844286070BD53EA020C66
:1003300000F069802DE9F04B4FF00006002B1FBF45
:10034000B3FA83F503FA05F424FA05F65E4012BF0A
:100350001643B2FA82F502FA05F4C5F120051EBF74
:1003600022FA05FC44EA0C04203556EA044C4FEA14
:10037000144418BF641C4FF000084FF0000990426D
:1003800071EB030C39D3002919BFB1FA81F701FAD7
:1003900007F6B0FA80F700FA07F6C7F120071EBF8C
:1003A00020FA07FC46EA0C062037B6FBF4FCA7EB64
:1003B0000507103F07F01F0BCBF120062CFA06F6BD
:1003C0000CFA0BFB44BFB3460026202FA4BF5E46A9
:1003D0004FF0000B5BEA060C08BF4FF0010B19EB66
:1003E0000B0948EB0608ABFB027C06FB02CC0BFBBF
:1003F00003CCC01B71EB0C01C1E70B460246414622
:100400004846BDE8F08B13B5084318BF4FF0FF30E6
:100410000146AFF30080BDE81C4070474FF000027A
:1004200000B5134694469646203922BFA0E80C50EA
:10043000A0E80C50B1F12001BFF4F7AF090728BFC5
:10044000A0E80C5048BF0CC05DF804EB890028BF41
:1004500040F8042B08BF704748BF20F8022B11F06A
:10046000804F18BF00F8012B7047704770477047E6
:100470000048704718000020704770477047704769
:1004800038B504460A4600206946AFF300800028CC
:1004900008BF38BD02460099204600F03FF8012011
:1004A00038BD012000F054B8F8B5AFF30080054620
:1004B00000200C46102000BF0646A819A0420DD906
:1004C000324669460020AFF30080070008BF00F005
:1004D0003FF80098A04218BF0546C419FFF7C8FFAF
:1004E00005600746F01D20F007004619284600F079
:1004F0000AF8B44208BFF8BDA21B31463868BDE80F
:10050000F84000F00BB800210160C0E9011070470D
:1005100010207047004870471000002003464068D4
:100520008C46002818BF88423CBF03464068F8D379
:1005300018681844884207D00CF1030020F0070027
:10054000001D411A521A0146081D0A60FFF7C7BE76
:1005500010B500F039F8BDE8104000F02FB8704732
:100560007546FFF7D7FFAE4605006946534620F0B3
:100570000700854618B020B5FFF770FEBDE82040A3
:100580004FF000064FF000074FF000084FF0000B4F
:10059000AC46ACE8C009ACE8C009ACE8C009ACE8BE
:1005A000C00921F007018D46704710B50446AFF32E
:1005B00000802046BDE81040FFF73BBE002801D078
:1005C00000F02AB87047000010B5012805D00021BE
:1005D00003A000F027F8012010BD09A1F8E70000F2
:1005E00053494752544D454D3A204F7574206F661C
:1005F0002068656170206D656D6F72790000000084
:100600003A2048656170206D656D6F727920636F67
:10061000727275707465640001491820ABBEFEE704
:100620002600020070B505460C460A2000E06D1C4D
:1006300000F011F835B128780028F8D102E0641CE8
:1006400000F009F814B120780028F8D1BDE8704016
:100650000A20AFF3008008B569468DF8000003203A
:10066000ABBE08BDFEE7000040F27800C2F2000019
:1006700000F060B87047000072B600BFFEE70000EF
:1006800070B5866D044600F025FB94F835100229FC
:1006900028D105462068216C026822F0160202600B
:1006A000426922F08002426109B9A16C19B1016866
:1006B00021F008010160016821F00101016000BF23
:1006C00020680068C00715D000F004FB401B062816
:1006D000F6D320206065032084F83500002184F8DB
:1006E000341070BD802060650120002184F8341032
:1006F00070BD00BFE06D3F2101FA00F0B060012045
:1007000084F835000020002184F8341070BD00000A
:1007100090F83510022909D1052180F835100068BC
:10072000016821F0010101600020704780214165CE
:1007300001207047F0B581B004460020009040F2DF
:100740000800C2F200000268D4E9166048F2B5134E
:1007500037680821C1F64E3381403942A2FB032598
:100760000CD0226813685B0708D5136823F00403D4
:100770001360B160616D41F001016165012181404B
:10078000394208D022685269120604D5B160616D01
:1007900041F00201616504218140394208D022689C
:1007A0001268920704D5B160616D41F00401616582
:1007B00010218140394217D020680268120713D5F2
:1007C000B16002680168520308D4C90508D4016801
:1007D00021F008010160216C21B905E008033FD434
:1007E000216C09B120468847E16D202000FA01F212
:1007F0003A4241D020680368DB063DD5B26094F8E8
:1008000035300268052B1BD122F0160202604269C6
:1008100022F080024261226C0AB9A26C1AB102680D
:1008200022F0080202603F208840B060012084F876
:100830003500216D0020002984F8340052D157E0A2
:100840000168520310D4C90512D4016821F01001C7
:100850000160012084F83500002084F8340007E0AE
:10086000A16C0029BED1BFE7080301D4616C00E090
:10087000E16B09B120468847606DC8B3606DC00761
:100880002ED0052084F835002068A90A026822F0DD
:1008900001020260009A01328A4200921AD802686C
:1008A000D20717D0009A01328A42009212D8026809
:1008B000D2070FD0009A01328A4200920AD8026809
:1008C000D20707D0009A01328A42009202D8026809
:1008D000D207DFD1012084F83500002084F83400ED
:1008E000E16C29B1204601B0BDE8F040084700BFE7
:1008F00001B0F0BD2DE9F041044600F0EBF9ECB198
:100900000546022084F835000020216884F8340070
:10091000086820F00100086021680868C00711D04D
:1009200000F0D8F9401B0528F6D903252023032021
:10093000636584F83550BDE8F08100BF0120BDE853
:10094000F08100BF086848F23F02CFF21002D4E9FC
:10095000013500EA020C04F10C0898E8C10143EAF1
:100960000C032B431843D4E9072E3043384310437C
:10097000626A40EA0E00042A40EA08031CD1206B98
:10098000D4E90A2E40EA0E00184308604869BEF117
:10099000000F20F0030040EA020040F0040C11D0E8
:1009A000B8F5005F36D0B8F1000F45D1022A46D025
:1009B000012A3BD032B942E00B60486920F00700C1
:1009C00040EA020C01F0F8004AF6AB221038CAF6F1
:1009D000AA22A0FB02231A0942F6D413C0F6000390
:1009E0009A5C40F2FF335F284FF03F00C1F814C01B
:1009F00021EA030100FA02F088BF0431C4E91612AB
:100A00008860002301250020636584F83550BDE827
:100A1000F08100BF032AD5D8012540230120DFE85B
:100A200002F0030E030500BF82E700BFAEF1C07005
:100A3000B0FA80F0400904E0032A04D3C2D1CEF317
:100A400000600028BED0012540230120636584F8A2
:100A50003550BDE8F081000070B590F834C0BCF1AD
:100A6000010F46D04FF0010C80F834C0D0F858E0A8
:100A700090F835C0BCF1010F38D14FF0020C80F86E
:100A800035C04FF0000CC0F854C0D0F800C08468E6
:100A9000056CC06DDCF80060402C26F48026CCF894
:100AA0000060CCF804300B4604BF13460A463F21D1
:100AB00001FA00F0CCF80830CCF80C20CEF8080091
:100AC000DCF8000040F01600CCF800002DB1DCF896
:100AD000000040F00800CCF80000DCF8000040F016
:100AE0000100CCF80000002070BD00BF002180F89C
:100AF0003410022070BD0000B0B5044600F0EAF8E2
:100B0000054640F20000C2F200000078611C18BFE8
:100B1000044400BF00F0DEF8401BA042FAD3B0BD91
:100B20002DE9F04F82B000F13E4241F2000502F1A2
:100B3000FF77C4F20205072243F6004E4FEAB726BC
:100B4000A84208BF0422C4F2010E042E38BF4FEAA7
:100B5000B7220125002600274FF00008009208E088
:100B600008F101080437B8F1100F06F1020600F091
:100B7000A7800C6805FA08F914EA090FF0D0D1F83B
:100B800004B003220BF0030CACF10104B240012CC1
:100B90006FEA020A10D88268CC6802EA0A02B440FE
:100BA000224382604268CBF3001422EA090204FA6D
:100BB00008F42243426005E0BCF1030F02D14FF07C
:100BC000030C20E0C2688C6802EA0A02B4402243A7
:100BD000BCF1020FC26016D16FF0030202EA5802A4
:100BE0000244D2F820C007F01C050F230C69AB406B
:100BF0002CEA030304FA05F52B431362D1F804B081
:100C000001250BF0030C02680CFA06F302EA0A0253
:100C10001A431BF4403F0260A2D0002243F6440373
:100C20000192C4F202031A684FF6084C42F4804263
:100C30001A601A68CFF6FF7C02F480420192019A92
:100C400028F00302724452F80C3007F00C050F2410
:100C5000AC40A343009C04FA05F52B4342F80C304A
:100C6000DEF808204B6842EA090543F60C4CDC022A
:100C700058BF22EA0905CEF80850C4F2010CDCF88E
:100C800000209C0242EA090558BF22EA0905CCF877
:100C90000050DEF804209C0342EA090558BF22EA0E
:100CA0000905CEF80450DEF80020DB0342EA09050E
:100CB00058BF22EA0905CEF80050012550E700BFD1
:100CC00002B0BDE8F08F0000002A08BF090481616E
:100CD0007047000040F26810C2F2000000687047E0
:100CE00040F2000040F26811C2F20000C2F20001BE
:100CF00000780A68104408607047000080B543F629
:100D00000040C4F20200016841F400710160016812
:100D100041F480610160016841F480710160032049
:100D200000F088F80F2000F005F800F027F8002008
:100D300080BD000070B540F20006C2F2000640F22D
:100D400008013278C2F200014FF47A730968B3FBEC
:100D5000F2F20446B1FBF2F1084600F043FB0F2C1F
:100D60004FF0010508D838B94FF0FF302146002276
:100D7000002500F033F87460284670BD82B0002072
:100D800043F640010190C4F202014A6842F48042F5
:100D90004A604A6802F480420192019A0090086811
:100DA00040F080500860086800F080500090009883
:100DB00002B07047002848BF7047C1B200F01F0062
:100DC000012202FA00F04EF20012CEF2000242EAD4
:100DD000D10121F0030108607047000010B54EF604
:100DE0000C5CCEF2000CDCF80030C3F3022E8EF067
:100DF0000704042C28BF0424BEF103034FF0FF3E78
:100E00000EFA04F438BF0023A14399400EFA03F30D
:100E10009A43114300F00F0200F160430901043AC4
:100E200003F564436244002848BF02F10C031970C3
:100E300010BD00004EF60C51CEF200010A684FF6CC
:100E4000FF031A4060F30A2242F0806040F0FD7018
:100E5000086070472DE9F041002800F08B8043F6D0
:100E60000808C4F202080446D8F8F8030D4600F05A
:100E70000700884207D288F8F853D8F8F80300F042
:100E80000700A84276D12068810717D5410705D50C
:100E9000D8F8001041F4E051C8F80010010705D55A
:100EA000D8F8001041F46041C8F80010D8F80010DC
:100EB000A26821F0F0011143C8F80010C0073FD12B
:100EC000D8F8F80300F00700A84207D988F8F853CB
:100ED000D8F8F80300F00700A8424BD1206841077A
:100EE00007D5D8F80010E26821F4E0511143C8F8A2
:100EF0000010000708D5D8F80000216920F46040F0
:100F000040EAC100C8F8000000F07CF8D8F80010F2
:100F100042F6BC12C1F30311C0F60002515C40F26C
:100F2000080220FA01F140F20400C2F20000006859
:100F3000C2F200021160FFF7FDFE0020BDE8F08163
:100F40006068811E022907D258F8081C89015CBF1D
:100F50000120BDE8F08111E0012807D158F8081CF4
:100F600089035CBF0120BDE8F08107E058F8081C48
:100F7000890703D40120BDE8F08100BFD8F8001034
:100F800021F003010843C8F80000FFF7A3FE06465E
:100F900041F28837D8F80000616800F00C00B0EB2F
:100FA000810F8DD0FFF796FE801BB842F2D9032047
:100FB000BDE8F08140F2080043F60801C2F20000EB
:100FC000C4F202010068096842F6CC12C1F3822122
:100FD000C0F60002515CC8407047000040F20800B3
:100FE00043F60801C2F20000C4F202010068096879
:100FF00042F6CC12C1F34231C0F60002515CC84047
:101000007047000010B543F60404C4F2020460689F
:1010100000F00C0008280BD0042819BF42F2004051
:10102000C0F2F40047F64000C0F27D1010BD00BFD2
:10103000206821682368490247F64001C0F27D110B
:1010400000F03F02C3F388105CBF42F20041C0F2DF
:10105000F401A1FB00010023FFF768F921680222D7
:10106000C1F3014102EB4101B0FBF1F010BD000002
:101070002DE9F04182B0002868D00446007843F69C
:101080000006C007C4F202060BD0B06800F00C00E6
:10109000042840F09F803068800302D560680028F3
:1010A00054D0207880071AD5B06810F00C0F09D002
:1010B000B06800F00C00082840F0A680706840027C
:1010C00000F1A2803068800702D5E06801283DD198
:1010D0003068216920F0F80040EAC10030602078D3
:1010E000000737D4207840074CD4A56955B3B068C1
:1010F00000F00C00082840F0BB80012D26D070685D
:10110000E16900F480028A4220D1216A00F03F02A6
:101110008A421BD147F6C071626A0140B1EB821F5F
:1011200014D1A16A4FF6FF73C903994300F440320A
:10113000A1F580318A4209D1E16A00F07060B0EB1C
:10114000016F03D1002002B0BDE8F081012002B0A0
:10115000BDE8F0816069002840F20000C4F2472039
:1011600076D00121C0F8801EFFF7B4FD054600BF10
:10117000706F8007B6D4FFF7ADFD401B0228F7D98A
:10118000DDE000BF306C10F080580AD100200190E3
:10119000306C40F080503064306C00F08050019032
:1011A000019847F20007C4F200073868C00541D42F
:1011B000386840F480703860FFF78CFD054600BF4A
:1011C0003868C00536D4FFF785FD401B0228F7D9E3
:1011D000B5E000BFB06800F00C00082803D17068CB
:1011E00040023FF558AF6068B0F5803F07D0B0F5DA
:1011F000A02F40F08D80306840F48020306030684F
:1012000040F4803030608DE0E068002852D000204B
:10121000C4F2472001210160FFF75CFD054600BFD5
:10122000306880073FF554AFFFF754FD401B02289C
:10123000F6D984E0A068012805D005284ED1306F8A
:1012400040F004003067306F40F0010030674FE03D
:101250000021C0F8801EFFF73DFD0546706F800736
:101260007FF540AFFFF736FD401B0228F6D966E058
:101270000027C4F2472700203866FFF72BFD022D18
:1012800005460BD1306880015ED5FFF723FD401B7A
:1012900002284FF00300F5D955E700BF3068800100
:1012A0007FF550AFFFF716FD401B02284FF00300FB
:1012B000F4D948E70020C4F2472000210160FFF77D
:1012C00009FD0546306880077FF509AFFFF702FD8D
:1012D000401B02284FF00300F4D934E7316F002897
:1012E00021F001013167316F21F0040131674DD0E8
:1012F000FFF7F0FC054641F2883700BF306F8007EA
:1013000056D4FFF7E7FC401BB842F7D917E000BFFF
:101310003168002821F480313160316821F4802166
:1013200031604FD0FFF7D6FC054600BF3068800320
:101330003FF5B7AEFFF7CEFC401B6428F6D903207B
:1013400002B0BDE8F08100BF04F11C052FCD0843B9
:1013500040EA8210D9034FF6FF729143A1F5803124
:1013600040EA05600843706001203866FFF7B2FC70
:10137000044600BF306880013FF5E4AEFFF7AAFCE9
:10138000001B02284FF00300F4D9DCE6FFF7A2FCB3
:10139000054641F2883700BF306F800708D5FFF758
:1013A00099FC401BB8424FF00300F5D9CBE600BFD3
:1013B000B8F1000F7FF499AE306C20F080503064AB
:1013C00093E600BFFFF786FC054600BF3068800348
:1013D0007FF567AEFFF77EFC401B64284FF00300EB
:1013E000F4D9B0E6411E0020B0EB116F1CBF012004
:1013F00070474EF21002CEF2000251604EF62351B9
:10140000CEF20001F0230B7007219060116070474D
:101410007047000070470000002804BF012070479B
:1014200010B5044690F83D0028B9002084F83C002F
:10143000204600F01FF8022084F83D002068211D9E
:1014400000F02AFD012084F8460084F83E0084F86C
:101450003F0084F8400084F8410084F8420084F89A
:10146000430084F8440084F8450084F83D000020DF
:1014700010BD000080B582B0006844F60001C4F2DF
:10148000010188421CBF02B080BD0020019043F6DC
:101490004400C4F202000168002241F4802101608E
:1014A0000068002100F48020019001981A20FFF7C5
:1014B00095FC1A2002B0BDE88040FFF77BBC00001D
:1014C00090F83D1001291CBF01207047022180F8CF
:1014D0003D10006840F6FF32C168C4F2000290423D
:1014E00041F00101C1600FDCB0F1804F1DD040F22E
:1014F0000041C4F20001884217D040F60001C4F256
:101500000001884211D017E040F60041C4F200010A
:1015100088420AD044F20001C4F20101884204D09A
:101520000021C4F20101884206D1816801F007015F
:10153000062904BF00207047016841F001010160E5
:10154000002070470146006841F21113C26822F082
:101550000102C260026A1A4204D00122002081F80E
:101560003D207047026A40F244431A42F5D10268B6
:1015700022F0010202600122002081F83D20704724
:101580007047000070B504460068C5680669B10779
:1015900016D515F0020113D06FF00201016101218F
:1015A00021778069800703D02046FFF7E9FF05E037
:1015B000204600F08FF8204600F08EF800202077BB
:1015C000700719D515F0040016D020686FF00401DB
:1015D000016102212177806910F4407F04D0204608
:1015E000FFF7CEFF06E000BF204600F073F820466C
:1015F00000F072F800202077300717D515F00800AA
:1016000014D020686FF00801016104212177C069BE
:10161000800703D02046FFF7B3FF05E0204600F027
:1016200059F8204600F058F800202077F00619D528
:1016300015F0100016D020686FF01001016108212C
:101640002177C06910F4407F04D02046FFF798FF4F
:1016500006E000BF204600F03DF8204600F03CF8D0
:1016600000202077F00718BF15F0010002D13006E6
:1016700009D412E020686FF001010161204600F0FA
:101680002DF8300609D515F0800006D020686FF0DF
:10169000800101612046FFF7BBFE700609D515F0F9
:1016A000400006D020686FF040010161204600F044
:1016B00017F8B00658BF70BD15F0200008D021689B
:1016C0006FF0200220460A61BDE87040FFF7A2BE1D
:1016D00070BD0000704700007047000070470000B8
:1016E000704700007047000070470000B0B582B03E
:1016F000044600680168C368426901F02F05202D87
:1017000003F0200506D12DB1204602B0BDE8B0405F
:1017100000F05EBD5FEA017C1EBF02F0010E03F423
:10172000907212EB0E0253D1226B012A05D111F0F7
:10173000100218BF13F0100236D10A0622D513F09A
:1017400080021FD094F8411021293FD1A168B1F542
:10175000805F03D12169002900F08282216A4A1C3E
:10176000226209784160E18C01390A04E1842DD1BB
:10177000C16821F08001C160C16841F04001C160D1
:1017800002B0B0BD490621D513F040011ED0C1689A
:1017900021F04001C1602021204684F8411002B0B0
:1017A000BDE8B04000F052BB0021019101680191F9
:1017B0004168019101994069400613D4A08DE18DE3
:1017C000E28D002A18BF884240F0CC8102B0B0BD43
:1017D000CA0718BF13F4807240F0BE804A0700F1B8
:1017E000C180C6E0E06B01684A68A38D91B2002910
:1017F00000F0A881994280F0A581E285C069B0F52A
:10180000807F00F09D80206850E8030F216820F45D
:10181000807041E80302DAB1206850E8030F2168C4
:1018200020F4807041E8030292B1206850E8030F71
:10183000216820F4807041E803024AB1206850E832
:10184000030F216820F4807041E80302002ADAD1F6
:10185000206850E8050F216820F0010041E80502EA
:10186000BAB3206850E8050F216820F0010041E874
:10187000050272B3206850E8050F216820F00100CE
:1018800041E805022AB3206850E8050F216820F0DE
:10189000010041E80502002ADAD11AE0206850E888
:1018A000050F216820F0400041E80502DAB1206808
:1018B00050E8050F216820F0400041E8050292B190
:1018C000206850E8050F216820F0400041E805023B
:1018D0004AB1206850E8050F216820F0400041E837
:1018E0000502002ADAD1202084F84200002020637B
:1018F000206850E8030F216820F0100041E803023F
:10190000DAB1206850E8030F216820F0100041E8A8
:10191000030292B1206850E8030F216820F0100004
:1019200041E803024AB1206850E8030F216820F023
:10193000100041E80302002ADAD1E06BFEF7A0FEB6
:1019400002206063A08DE18D401A81B2204602B072
:10195000BDE8B040FFF7C6BE626C42F001026264AF
:101960004A0706D5BEF1000F03D0626C42F00202B6
:1019700062648A0706D5BEF1000F03D0626C42F0A4
:1019800004026264BCF1000F09D545EA0E02B2FA06
:1019900082F2520903D1626C42F008026264626C06
:1019A000002A3FF413AF11F0200118BF002D03D01F
:1019B000204600F00DFC20684069616C00F040009A
:1019C00001F00801401800F0B58000BF206850E821
:1019D000030F216820F4907041E80302BAB3206835
:1019E00050E8030F216820F4907041E8030272B3BD
:1019F000206850E8030F216820F4907041E803024A
:101A00002AB3206850E8030F216820F4907041E861
:101A10000302002ADAD11AE0206850E8050F216895
:101A200020F0010041E80502DAB1206850E8050F16
:101A3000216820F0010041E8050292B1206850E8D9
:101A4000050F216820F0010041E805024AB1206835
:101A500050E8050F216820F0010041E80502002A46
:101A6000DAD1206B012824D1206850E8030F2168C7
:101A700020F0100041E80302DAB1206850E8030FBB
:101A8000216820F0100041E8030292B1206850E87C
:101A9000030F216820F0100041E803024AB12068DA
:101AA00050E8030F216820F0100041E80302002AEB
:101AB000DAD1202084F842000020206320684069A9
:101AC000400649D5206850E8050F216820F0400005
:101AD00041E80502DAB1206850E8050F216820F0DE
:101AE000400041E8050292B1206850E8050F2168E6
:101AF00020F0400041E805024AB1206850E8050F97
:101B0000216820F0400041E80502002ADAD1E06BAC
:101B100010B341F69171C0F600010165FEF7F8FDC2
:101B200000283FF453AEE06B016D02B0BDE8B04059
:101B3000084700BF2046FFF7D7FD0020606402B0D1
:101B4000B0BD00BF8B427FF441AEC069B0F5807F6D
:101B50007FF43CAE02227CE0204602B0BDE8B040FB
:101B6000FFF7C2BD401A216851E8031F226821F423
:101B7000907142E80313DBB1216851E8031F22682A
:101B800021F4907142E8031393B1216851E8031FD7
:101B9000226821F4907142E803134BB1216851E8A7
:101BA000031F226821F4907142E80313002BDAD15D
:101BB000216851E8051F226821F0010142E8051360
:101BC000DBB1216851E8051F226821F0010142E8DC
:101BD000051393B1216851E8051F226821F0010126
:101BE00042E805134BB1216851E8051F226821F036
:101BF000010142E80513002BDAD1202184F84210BC
:101C000000212163216851E8031F226821F010019F
:101C100042E80313DBB1216851E8031F226821F079
:101C2000100142E8031393B1216851E8031F2268B1
:101C300021F0100142E803134BB1216851E8031F62
:101C4000226821F0100142E80313002BDAD10222AE
:101C500081B22046626302B0BDE8B040FFF742BDEA
:101C6000216A31F8022B6FF35F22426021627AE52C
:101C7000002804BF0120704710B5044690F84100C9
:101C800028B9002084F84000204600F021F82420E4
:101C900084F841002068C16821F40051C1602046E9
:101CA00000F016FB2068016921F49041016141694F
:101CB00021F02A014161C16841F40051C160002056
:101CC0002021606484F8411084F84210606310BDE4
:101CD00070B586B00446016844F20040C4F20000CA
:101CE000814201D006B070BD002643F63001019656
:101CF000C4F202010A6900F5DE3042F400320A61E2
:101D00000A6902F400320192019A01960A6842F0CF
:101D100001020A60096801F00101019101990C2199
:101D200001910221CDE902160321049107210591B9
:101D300001A9FEF7F5FE40F2780546F2A000C2F2D6
:101D40000005C4F202004FF00061402285E8470020
:101D50004FF480304FF48063C5E908062846C5E992
:101D60000436C5E90666FEF7C5FD002818BFFEF774
:101D700083FC262000210022A563AC63FFF72EF828
:101D80002620FFF717F806B070BD0000704700006E
:101D9000B0B5044690F8410020281CBF0220B0BD19
:101DA00000294FF001004DD0002A134608BFB0BDF6
:101DB0004FF0000C21202162A384E384C4F844C0C6
:101DC00084F84100A06B42F2191E42F2C915226844
:101DD000C0F6000EC0F60005C0E90FE541F69D759E
:101DE000C0F600050432C0E9135CFEF735FE20683A
:101DF0006FF04001016000BF206850E8050F2168C6
:101E000040F0800041E80502F2B1206850E8050F7B
:101E1000216840F0800041E80502AAB1206850E83E
:101E2000050F216840F0800041E8050262B120689A
:101E300050E8050F216840F0800041E80502002AC3
:101E4000DAD10020B0BD00BF0020B0BD7047000057
:101E500070470000FEE70000FEE70000FEE700001C
:101E60007047000070470000FEF73ABF4EF68850FA
:101E7000CEF20000016841F470010160704700007B
:101E800080B540F2D800C2F20000FFF77BFBBDE84E
:101E9000804000F071BB0000B0B540F2FF7E0568E5
:101EA000C4F2000E40F2000C7045C4F2010C1DDDBE
:101EB00040F60003C4F20003984220D060451ED0D3
:101EC00040F60043C4F20003984218D04FF6FF7367
:101ED000C4F2000398421DDC704527DCB0F1804F4E
:101EE0003CD040F20043C4F2000335E0B0F1804F33
:101EF00005D040F20043C4F200039842E6D14B689B
:101F000025F0700243EA02054FF6FF73C4F20003A6
:101F10009842E1DD44F2FF33C4F20103984211DC40
:101F200060451BD044F2000314E000BF40F60003FC
:101F3000C4F20003984211D040F60043C4F20003FB
:101F40000AE000BF44F60003C4F20103984205D042
:101F500044F20043C4F20103984204D1CB6825F453
:101F6000407243EA02050A688C684B696045C462A6
:101F7000826202D10969CCF83010026825F0800134
:101F800042F0040219430260012242610160B0BDC7
:101F9000806B0021C185FFF7A7BB0000806B016843
:101FA0004A6990F84130212B2DD112F080022AD0BD
:101FB0000021C184016851E8031F026821F0C001BB
:101FC00042E80313DBB1016851E8031F026821F006
:101FD000C00142E8031393B1016851E8031F02688E
:101FE00021F0C00142E803134BB1016851E8031F1F
:101FF000026821F0C00142E80313002BDAD120214E
:1020000080F841100168496990F84220222A40F086
:102010007D8011F0400179D00021C185016851E82F
:10202000031F026821F4907142E80313BBB30168F7
:1020300051E8031F026821F4907142E8031373B35F
:10204000016851E8031F026821F4907142E803130C
:102050002BB3016851E8031F026821F4907142E834
:102060000313002BDAD11AE0016851E8051F02685A
:1020700021F0010142E80513DBB1016851E8051FB9
:10208000026821F0010142E8051393B1016851E8AB
:10209000051F026821F0010142E805134BB10168F8
:1020A00051E8051F026821F0010142E80513002BE9
:1020B000DAD1016B012924D1016851E8031F0268BC
:1020C00021F0100142E80313DBB1016851E8031F5E
:1020D000026821F0100142E8031393B1016851E84E
:1020E000031F026821F0100142E803134BB101689D
:1020F00051E8031F026821F0100142E80313002B8E
:10210000DAD1202180F8421000210163416C41F0B6
:1021100010014164FFF7E8BA0168806B0968C905DE
:1021200048BFFFF793BE0021C18400BF016851E89A
:10213000051F026821F0800142E8051383B301689E
:1021400051E8051F026821F0800142E805133BB306
:10215000016851E8051F026821F0800142E805137B
:10216000F3B1016851E8051F026821F0800142E8DF
:102170000513002BDAD113E0016851E8031F026850
:1021800041F0400142E80313002B08BF704701688B
:1021900051E8031F026841F0400142E8031393B184
:1021A000016851E8031F026841F0400142E803134F
:1021B0004BB1016851E8031F026841F0400142E859
:1021C0000313002BD8D17047806BFFF741BE00008E
:1021D00081B090F84210222921D183680246B3F5DC
:1021E000805F09D152F8281F52F8183C002B63D0A9
:1021F00003685B680AE000BF52F8281F13B903693F
:10220000002BF5D003685B6803F07F030B70116847
:1022100001311160C18D01390A04C18502D001B0BC
:10222000704700BF0168CA6822F02002CA60CA680D
:1022300022F48072CA604A6922F001024A612021B8
:1022400080F8421000214163026B012A3CD10163F6
:10225000016851E8031F026821F0100142E80313EE
:10226000DBB1016851E8031F026821F0100142E868
:10227000031393B1016851E8031F026821F01001B4
:1022800042E803134BB1016851E8031F026821F0D3
:10229000100142E80313002BDAD101680A68D20664
:1022A00006D5002200920A680092496800910099C0
:1022B000818D01B0FFF716BA026852686FF35F2292
:1022C00021F8022B8162A5E701B0FFF75FBD000096
:1022D00010B504460068D4E902C22369016921F4FB
:1022E000405111430161626943EA0C01E369114302
:1022F000C268194349F20C639A431143C1604169B2
:10230000A26921F4407141F20043114340F480621C
:10231000C4F201039A42416102D1FEF75FFE01E07F
:10232000FEF748FEE16963681922B1F5004FA0FB92
:10233000020123D15A00DB0FFDF7F8FF48F21F51CD
:10234000C5F2EB11A0FB01235A094FF69C73C0F6AE
:10235000FF7303F1805302FB0300322303EBC00041
:10236000A0FB01014FF4F87000EA111000EB02101D
:10237000C1F3421108442168886010BD9A009B0F88
:10238000FDF7D4FF48F21F51C5F2EB11A0FB01236A
:102390005A094FF69C73C0F6FF7302FB0300322309
:1023A00003EB0010A0FB0101F02000EA511000EB4C
:1023B0000210C1F3431108442168886010BD000079
:1023C00040F22010C2F20000FFF790B9FEE70000D3
:1023D00092B043F6300647F20005C4F20206C4F29A
:1023E0000005FEF78BFC06AC201D2C21FEF716F82D
:1023F00000270597CDE90377CDE90177009730698C
:1024000040F080503061306900F0805000900098BA
:102410000097286840F440402860286800F4404055
:1024200000900098022006900120099010200A9048
:1024300020460C97FEF71CFE10B172B6FEE700BFF7
:102440000F20CDE9010701A80021CDE90377059709
:10245000FEF700FD10B172B6FEE700BF00270A9735
:102460000197306805F5CC3440F0040030603068E6
:102470004FF4005100F0040001900198019730687A
:10248000002240F00100306030684FF4005800F046
:102490000100019001982046FEF716FC0120CDE9CD
:1024A000070706A92046CDF818800997FEF738FBE4
:1024B00006973068002140F4001030603068002238
:1024C00000F40010069006981120FEF787FC1120FA
:1024D000FEF770FC40F2D80005F55841C2F200004A
:1024E0004FF47A7343F67F6280E88600C0E90337D1
:1024F0008761FEF791FF18B172B600BFFEE700BF1B
:1025000040F2201044F20041C2F20000C4F2000187
:102510000C234FF4E13280E88600C0E90377C0E97C
:102520000537C761FFF7A4FB10B172B6FEE700BF25
:102530000DA106A800F0F4F840F2201440F2D805EE
:10254000C2F20004C2F200050799BDF81820204627
:10255000FFF71EFC6420FEF7CFFA079928460522F4
:1025600000F088F9F0E700BF48656C6C6F20576F8A
:10257000726C643133000000B0B540F27004C2F2F6
:10258000000420680025415D2C2907DD2D2952D04B
:102590002E296AD0702907D181E000BF002900F000
:1025A000B480202900F0958041194A782C2A07DD53
:1025B0002D2A2FD02E2A2FD0702A06D12EE000BF30
:1025C000002A00F0A280202A2AD08A782C2A07DD4F
:1025D0002D2A27D02E2A27D0702A06D126E000BF28
:1025E000002A00F09280202A22D0C9782C2907DD09
:1025F0002D291FD02E2937D0702906D14EE000BFDB
:10260000002908BFB0BD202962D00435415D2C29C6
:10261000BCDCC3E701350EE0013526E001353EE0C4
:10262000013556E0023506E002351EE0023536E09F
:1026300002354EE0033540F60000C4F202004FF4CC
:1026400000510022FEF740FB40F20C00C2F20000F5
:10265000007862686421484311682368C862D060CA
:102660007020585551E000BF033540F60000C4F219
:1026700002004FF400510022FEF726FB40F20C004E
:10268000C2F200000078616800EB80000A688000F8
:102690002368D062C86070205855B0BD033540F63D
:1026A0000000C4F202004FF400510122FEF70CFBBF
:1026B00040F20C00C2F200000078616800EB80007C
:1026C0000A68C0002368D062C86030205855B0BD89
:1026D000033540F60000C4F202004FF4005101221D
:1026E000FEF7F2FA40F20C00C2F2000000786168D6
:1026F00000EB80000A68C0002368D062C8607020C8
:10270000585520682918497801B1B0BDFDF7E7FD9B
:10271000606800212160BDE8B040FEF713BF0000F3
:102720002DE9F04381B00F788046002F00F08C80B7
:1027300042F6DC1689460020C0F600063A46002123
:1027400004E000BF013119F801208AB3002303E03F
:1027500095F82C5028443033F55C954203D0F51899
:102760006D78954202D1F5182D7A2844B3F5D87FBB
:10277000E8D0F5182C7B944206D06C7B944203D0B1
:102780002C7E944205D107E02C7D20442C7E94427F
:1027900002D06C7E944202D195F82040204495F8F6
:1027A00024409442D4D095F825409442D0D0D2E72A
:1027B0000130FDF765FD002FC8F8040052D04FF03E
:1027C000000E4FF0000C09E00CEB070101F1010CC9
:1027D0000EF1010E19F80E70002F3CD0002100BF41
:1027E000725CBA4208D072185278BA4204D00C31E6
:1027F000B1F5DE7FF4D1EBE731444B68197800295D
:10280000E6D000EB0C050027E955D9194A78002AD3
:10281000DAD0EC1962708A7852B1A270CA786AB1C3
:10282000E270097904370029EED1BC44D0E700BF3B
:102830000CEB070101F1020CCAE700BF0CEB07012A
:1028400001F1030CC4E700BF0120FDF719FD4FF0B3
:10285000000CC8F80400002100F80C1001B0BDE81D
:10286000F08300BF4FF0000C002100F80C1001B005
:10287000BDE8F0832DE9F04381B040F27007C2F269
:10288000000790463A681AB101B0BDE8F08300BF76
:102890000E4681460020012146F20102335CA3F17D
:1028A00020040E2C26D800BF01FA04F5154221D0D1
:1028B00033185C78A4F120050E2D1FD801FA05F518
:1028C00015421BD09C78A4F120050E2D20D801FACA
:1028D00005F515421CD0DB78A3F120050E2D3FD85D
:1028E00001FA05F515423BD00430335CA3F1200416
:1028F0000E2CD9D9002BC7D10DE000BF002CC3D1BD
:102900000130811911F8011C2029BDD108E000BF58
:10291000002CB9D10230811911F8011C2029B3D142
:10292000FDF7AEFC3860337800214FF000024BB366
:1029300038688354B0184378F3B13D6815446B7020
:102940008378DBB13D681544AB70C378C3B13D6893
:102950001544EB7003790432002BE9D111E000BF7C
:10296000002B7FF491AF0330811911F8011C20294D
:102970007FF48AAFD4E700BF013202E0023200E008
:1029800003323868815440F20C01C2F20001C7F8EA
:102990000490484681F8008001B0BDE8F043FEF79E
:1029A0008FBDF1EE100A4FF6FF71C0F2C03120EA80
:1029B000010040F04070E1EE100A70470000000096
:1029C00000000000010203040607080900000000DF
:1029D00001020304000610160006101641610000F3
:1029E000C82B00080300000042620000F32B00081F
:1029F0000500000043630000D92B0008050000001B
:102A000044640000ED2B0008040000004565000050
:102A1000042C00080200000046660000DF2B0008BE
:102A20000500000047670000D42B000804000000E8
:102A300048680000012C00080500000049690000FA
:102A4000032C0008030000004A6A0000AC2B0008B9
:102A5000050000004B6B0000BA2B000804000000CA
:102A60004C6C0000EC2B0008050000004D6D0000D0
:102A7000B52B0008020000004E6E0000E12B00089C
:102A8000030000004F6F0000AD2B000804000000A1
:102A900050700000D32B00080500000051710000A9
:102AA000B92B00080500000052720000E02B00085E
:102AB0000400000053730000022C00080400000012
:102AC00054740000C92B0008020000005575000076
:102AD000C72B00080400000056760000C72B000832
:102AE0000400000057770000C82B00080300000016
:102AF00058780000BF2B000805000000597900003D
:102B0000BA2B0008040000005A7A0000E62B0008E7
:102B10000500000031310000A42B00080600000071
:102B200032320000AB2B00080600000033330000F7
:102B3000B22B00080600000034340000C52B00084A
:102B40000600000035350000002C000806000000DB
:102B500036360000F92B0008060000003737000069
:102B6000F22B00080600000038380000E52B0008B2
:102B70000600000039390000CC2B000806000000D8
:102B8000303000009D2B00080600000020200000CF
:102B9000982B00080300000020202020002D2D2D60
:102BA0002D2D20002E2D2D2D2D20002E2E2D2D2DC6
:102BB00020002E2E2E2D2D20002D2D2E2D20002DEF
:102BC0002E2E2D20002E2E2E2E2D20002D2D2D2DA3
:102BD0002E20002E2D2D2E20002D2E2D2E20002ECD
:102BE0002E2D2E20002D2D2D2E2E20002E2D2E2E82
:102BF00020002D2D2E2E2E20002D2E2E2E2E2000AC
:102C00002E2E2E2E2E200000282C00080000002042
:102C100010000000D4010008382C0008100000202B
:102C200060070000F0010008010000001000000033
:082C30000024F4000100000083
:040000050800019955
:00000001FF
